:020000040800F2
:1000000020120020990100087715000899140008B3
:1000100075150008E5020008D5170008000000006B
:1000200000000000000000000000000001010008C6
:10003000E70200080000000045010008DD15000887
:10004000B3010008B3010008B3010008B3010008C0
:10005000B3010008B3010008B3010008B3010008B0
:10006000B3010008B3010008B3010008B3010008A0
:10007000B3010008B3010008B3010008B301000890
:10008000B3010008B3010008B3010008B301000880
:10009000B3010008B3010008B3010008B301000870
:1000A000B3010008A5160008B3010008B301000859
:1000B000B3010008B3010008B3010008B301000850
:1000C000B3010008B3010008B3010008B301000840
:1000D000B3010008B3010008B3010008B301000830
:1000E000B3010008B3010008B3010008DFF80CD029
:1000F00000F088F80048004715180008201200207A
:10010000224B19680868B0E8F00F80F30988BFF344
:100110006F8F4FF0000080F311884EF00D0E704786
:100120000000000006480068006880F3088862B696
:1001300061B6BFF34F8FBFF36F8F00DF00BF00BF0B
:1001400008ED00E0EFF30980BFF36F8F0F4B1A68E3
:1001500020E9F00F106008B54FF0500080F31188CF
:10016000BFF34F8FBFF36F8F01F0DCFE4FF0000045
:1001700080F31188BDE8084019680868B0E8F00FFE
:1001800080F30988BFF36F8F704700BF1C00002009
:10019000EFF3058070470000064880470648004797
:1001A000FEE7FEE7FEE7FEE7FEE7FEE7FEE7FEE727
:1001B000FEE7FEE75D160008ED00000840EA0103D7
:1001C0009B0703D009E008C9121F08C0042AFAD20D
:1001D00003E011F8013B00F8013B521EF9D27047D1
:1001E000D2B201E000F8012B491EFBD27047002279
:1001F000F6E710B513460A4604461946FFF7F0FF26
:10020000204610BD064C074D06E0E06840F00103B3
:1002100094E8070098471034AC42F6D3FFF76AFF22
:10022000642200088422000870B5044600688168D2
:10023000C943C9071CD1816821F00101816000F028
:100240009DFB05460FE000BF00F098FB401B022815
:1002500009D9A06A40F01000A062E06A40F00100F5
:10026000E062012070BD20688068C043C007EBD009
:10027000002070BDF8B5002604460096006881682D
:10028000C943C90728D0816841F001018160134842
:1002900013490068B0FBF1F000E0401E0090002818
:1002A000FBD100F06BFB054611E000BF00F066FBE0
:1002B000401B02280BD9A06A40F01000A062E06A3F
:1002C00040F00100E06284F824600120F8BD20685D
:1002D0008068C043C007E9D10020F8BD18000020A5
:1002E00040420F00FEE77047F8B50024009490F8F4
:1002F00024202546012A12D0012280F824204A68B1
:100300001F23072A0DD20668776B521E02EB82026A
:1003100093409F430B6893401F43776319E002208B
:10032000F8BD06680D2A0AD2376BD21F02EB820293
:1003300093409F430B6893401F43376309E0F76A7C
:100340000D3A02EB820293409F430B6893401F4398
:10035000F7620A68072306680A2A0AD3F7680A3A86
:1003600002EB420293409F438B6893401F43F76028
:1003700008E0376902EB420293409F438B68934049
:100380001F4337610A68102A01D0112A20D1124B6D
:1003900002689A4217D193681B0219D4936843F4F8
:1003A000000393600968102912D10C490C4A0968AE
:1003B000B1FBF2F101EB8101490000E0491E00911F
:1003C0000029FBD104E0816A41F02001816201240F
:1003D00080F824502046F8BD002401401800002079
:1003E00040420F000068C06C704700002DE9F041EA
:1003F0004FF0000704003D467ED0A06A002628B9D1
:10040000E66284F82460204600F07EF82046FFF77C
:100410000BFFA16AC90600D420B1A06A40F0100009
:10042000A06269E0A16A21F4885141F00201A16251
:100430006268E169237B0A4347EA43010A43A168F2
:100440004FF48077B94209D0012907D05FF000014D
:1004500094F814C0BCF1010F02D00AE03946F7E766
:10046000F3B1A36A43F02003A362E36A43F00103FC
:10047000E3622368D3F804C02CF4694C4CEA010C05
:10048000C3F804C021688B68DFF870C003EA0C036E
:1004900013438B60A168B9420BD0012909D00CE04D
:1004A000DFF85CC0A3690CEB43330B4343F40061FA
:1004B000DFE7218A0D05A5F580152168CB6A23F4B5
:1004C00070032B43CB62216889680E4B194091421F
:1004D00008D1E662A16A21F0020141F00101A162A6
:1004E000BDE8F081A06A20F0020040F01000A06298
:1004F000E06A40F00100E0620120F1E7FDF7E1FF72
:1005000000E0FFFFFE0E1FFF00B585B00021009147
:1005100001910291039100680E49884218D10E485A
:10052000816941F400718161816901F40071049174
:10053000816941F0040181618069694600F004002D
:1005400004900120009003200190044800F01AF963
:1005500005B000BD00240140001002400008014029
:100560002DE9F84300260D460446009600F006FAF1
:10057000804620688168C90508D5A06A40F020003F
:10058000A06284F824600120BDE8F8834168C905B1
:1005900003D4C06A10F4700F26D0022000F0ACFA29
:1005A00038490968B1FBF0F72068036936490B4206
:1005B0004FEA61014FEAA1121BD1C3684FEA611CE7
:1005C00013EA0C0F15D103690B4221D1C068104208
:1005D0001ED114201FE0681C06D045B300F0CEF9F0
:1005E000A0EB0800A84222D8206800688007F2D556
:1005F0002AE003690B4202D1C168114206D00269A8
:1006000022490A4206D1C068084203D1542002E0C0
:10061000292000E0FC204743009813E0681C0ED01E
:100620002DB100F0ABF9A0EB0800A84207D9A06AF1
:1006300040F00400A06284F824600320A4E700983E
:10064000401C0090B842E9D321686FF012000860A6
:10065000A06A40F40070A06220688068C0F3424045
:1006600007280CD1207B50B9A06A20F48070A062CA
:10067000A06AC00403D4A06A40F00100A062002078
:1006800082E70000180000202449922449922400A7
:1006900070B5044690F8240001280DD0012084F89C
:1006A00024002046FFF7E6FD02004FF0000005D0D1
:1006B00084F82400104670BD022070BDA16A40F28B
:1006C0000123994341F48071A1621F4D23681F49A2
:1006D000AB4218D10E6816F4702F14D0A66A46F4F7
:1006E0008016A6620E68760505D5A66A26F4005621
:1006F00046F48056A662A66AF6040AD5E66A26F093
:100700000606E66206E0A66A26F48016A6625E6821
:10071000E9E7E06284F824006FF0020018602068C6
:100720008368C3F34243072B05D1A84208D1096867
:1007300011F4702F04D0816841F480118160B9E711
:10074000816841F4A001F9E7002801400424014038
:1007500010B5044690F82400012807D0012084F841
:1007600024002046FFF760FD10B107E0022010BD15
:10077000A16A21F4885141F00101A162002184F8AD
:10078000241010BD2DE9F84FDFF8B891002409F1CD
:10079000040A0AF1040B23460F270BF1040EC9E0EB
:1007A0000125A5402A40AA427DD1674ED1F804C058
:1007B000ACEB0608B44532D014DCBCF1030F3AD0E0
:1007C00009DCBCF1000F2AD0BCF1010F1CD0BCF138
:1007D000020F31D11DE0BCF1110F17D0BCF1120F87
:1007E0002AD119E0B8F5881F19D006DCB8F5803F8A
:1007F00015D0B8F5801F1FD111E0B8F5001F0ED03D
:10080000B8F5041F18D10AE0CB6815E0CB681B1DB2
:1008100012E0CB6808330FE0CB680C330CE08B6838
:100820002BB1012B4FF0080303D0456104E00423F2
:1008300002E0056100E00023FF2A01D8064601E03E
:1008400000F104064FEA840501D9A5F12005D6F888
:10085000008007FA05FC28EA0C0803FA05F548EAC7
:100860000508C6F800804D68ED0062D5374DAE69C9
:1008700046F00106AE61AD6924F0030605F00105FE
:100880000095334D06EB050CDCF80850A607360F33
:1008900007FA06F825EA0805DFF8B880404503D1D5
:1008A0004FF0000817E044E0DFF8AC80404502D18B
:1008B0004FF001080FE0DFF8A480404502D14FF06F
:1008C000020808E0DFF89880404502D14FF00308A5
:1008D00001E04FF0040808FA06F848EA0508CCF8E9
:1008E00008804D68D9F80060ED034D4601D51643E8
:1008F00000E096432E604D68DAF80060AD0355467F
:1009000001D5164300E096432E604D68DBF8006089
:10091000ED025D4601D5164300E096432E604D681A
:10092000DEF80060AD02754601D5164300E096433F
:100930002E60641C0D682A46E5407FF431AFBDE8A7
:10094000F88F000000040140000011100010024068
:100950000000014000080140000C0140001001406F
:1009600000140140C2680A4201D041617047016130
:1009700070470AB1016170470904FBE701488068CC
:10098000704700000C000020024881680278114482
:10099000816070470C000020074810B5016841F0E5
:1009A00010010160032000F095F8002000F006F827
:1009B00000F03EF8002010BD0020024000B50146C6
:1009C00087B00022192000F065F8192000F054F8D3
:1009D0001348816941F400618161806905A900F4CF
:1009E00000600690684600F0F7F900F025FA0D491E
:1009F0000D4AB0FBF1F10D48491E0260416040F222
:100A0000E7320021C0E90321816000F0EDFB10B165
:100A1000012007B000BD054800F002FCF9E7000026
:100A20000010024040420F00002C0140EC0000206A
:100A30000F4808B5816941F001018161816901F0C8
:100A400001010091C16941F08051C161C06900227A
:100A500000F0805000900F21901E00F01BF8054818
:100A6000416821F0E06141F08061416008BD000013
:100A70000010024000000140002809DB00F01F02C6
:100A8000012191404009800000F1E020C0F80011F0
:100A900070470000F0B40E4B1B680C46C3F30223F2
:100AA000C3F10705042D00D90425191D072901D21A
:100AB000002300E0DB1E012606FA05F1491E214055
:100AC00099409E40761E16403143F0BC00F083BE34
:100AD0000CED00E0064900F0070208684FF6FF033E
:100AE000184040EA0220034A1043086070470000A3
:100AF0000CED00E00000FA0510B529A401461DCC5C
:100B000086B08DE81D002AA02A4C006804900020C1
:100B1000012923D002293AD010291DD16168226809
:100B2000D20119D5C1F38342C9031DF8020009D5CA
:100B3000616804AAC1F34041515C1F4AB2FBF1F164
:100B4000484301E01D4948436168490204D440001C
:100B50005FF00301B0FBF1F006B010BD226AC2F3F2
:100B60000121012903D1920701D5C803F4E7022925
:100B700005D1626A920702D549F64040ECE70329A5
:100B8000EAD121688903E7D54FF22440E4E700F079
:100B900053F96168C1F38131491C4900DAE700006B
:100BA00002030405060708090A0B0C0D0E0F1010AE
:100BB000010200000010024000127A0000093D000E
:100BC0002DE9F84305460078354CC00754D0E0695C
:100BD0000026C00008D4E06940F08050E061E06980
:100BE000012600F0805000902E480168C90512D4FB
:100BF0000168804641F480710160FFF7BFFE07463F
:100C000005E000BFFFF7BAFEC01B642823D8D8F860
:100C10000000C005F6D5206A10F4407021D0A988E4
:100C200001F4407181421CD0206A1F49012220F446
:100C300040700A6000220A602062C00711D0FFF7EE
:100C40009DFE074641F2883808E000BFFFF796FE98
:100C5000C11B414502D90320BDE8F883206A800703
:100C6000F4D5206A696820F44070084320621EB100
:100C7000E06920F08050E0612878800705D5606841
:100C8000A96820F44040084360602878C00605D574
:100C90006068E96820F48000084360600020DBE7BA
:100CA0000010024000700040400442422DE9F0472D
:100CB0000F46050061D0434E306800F00700B8428F
:100CC00009D2306820F0070038433060306800F007
:100CD0000700B84251D128683B4C810712D5400724
:100CE00003D5606840F4E06060602878000703D5B1
:100CF000606840F4605060606068A96820F0F000AF
:100D0000084360602878C00728D06868012810D0A0
:100D10002168022810D0890700292EDA616821F0A5
:100D2000030101436160FFF729FE804641F28839E3
:100D30000DE021688903EFE78901EDE7FFF71EFE6B
:100D4000A0EB0801494502D90320BDE8F08760689F
:100D5000696800F00C00B0EB810FEFD1306800F053
:100D60000700B8420BD9306820F0070038433060E4
:100D7000306800F00700B84201D00120E5E728788C
:100D8000400705D56068E96820F4E06008436060CA
:100D90002878000706D56068296920F4605040EA89
:100DA000C100606000F058F86168084AC1F303119F
:100DB000515CC8400649086006480068FFF7FEFD20
:100DC0000020C2E700200240001002403422000848
:100DD00018000020100000200F2202600C4A536807
:100DE00003F003034360536803F0F0038360536828
:100DF00003F4E063C36052684FF4E06303EAD20295
:100E000002610448006800F00700086070470000B5
:100E1000001002400020024004480549006849686B
:100E2000044AC1F30221515CC840704718000020F9
:100E3000001002404422000804480549006849683F
:100E4000044AC1F3C221515CC84070471800002019
:100E5000001002404422000812A185B00FC98DE89D
:100E60000F0014A0144A006804905168134801F060
:100E70000C03042B10D0082B0ED1C1F38343C903FC
:100E80001DF803000AD5516804AAC1F34041515C22
:100E90000A4A5043B0FBF1F005B070470849484397
:100EA000FAE7000002030405060708090A0B0C0D07
:100EB0000E0F1010010200000010024000127A0014
:100EC00000093D002DE9F84F040070D02078C04D96
:100ED000C00749D06868C0F38100012807D068685E
:100EE000C0F38100022809D16868C00306D52868CC
:100EF000800339D560680028E7D035E06068B0F538
:100F0000803F0BD010B1B0F5A02F11D0286820F48D
:100F100080302860286820F4802002E0286840F4AF
:100F200080302860606890B1FFF728FD06460AE02F
:100F3000286840F480202860F0E700BFFFF71EFD1E
:100F4000801B642873D828688003F7D50CE0FFF76E
:100F500015FD064605E000BFFFF710FD801B642865
:100F6000F0D828688003F7D420789A4E80074FF095
:100F700001094FF0000839D5686810F00C0F07D050
:100F80006868C0F38100022809D16868C00306D4EC
:100F90002868800714D52069012808D110E020694D
:100FA000B0B1C6F80090FFF7E9FC074605E00AE19A
:100FB000FFF7E4FCC01B0228C4D828688007F7D5D7
:100FC0002868616920F0F80040EAC10028600DE05F
:100FD000C6F80080FFF7D2FC074604E0FFF7CEFC1E
:100FE000C01B022823D828688007F7D42078000780
:100FF0002CD57948A169D9B1C0F80090FFF7BEFCA3
:10100000074604E0FFF7BAFCC01B02280FD8686A45
:101010008007F7D571484FF4FA510068B0FBF1F042
:10102000009000BF0098411E0091FAD20EE080E0CF
:10103000C0F80080FFF7A2FC074604E0FFF79EFC23
:10104000C01B022875D8686A8007F7D4207840074B
:1010500060D5E8690027C00008D4E86940F08050F6
:10106000E861E869012700F0805000905C48016861
:10107000C90513D40168834641F480710160FFF70C
:101080007DFC824606E000BFFFF778FCA0EB0A007B
:1010900064284ED8DBF80000C005F5D5E0680128CB
:1010A0000AD008B1052813D0286A20F00100286270
:1010B000286A20F0040002E0286A40F0010028625B
:1010C000E06841F2883B98B1FFF758FC82460BE09C
:1010D000286A40F004002862EEE700BFFFF74EFCEC
:1010E000A0EB0A0159455AD8286A8007F6D50CE0CA
:1010F000FFF744FC824605E0FFF740FCA0EB0A0145
:1011000059454CD8286A8007F6D41FB1E86920F009
:101110008050E861E06988B36968C1F38101022900
:1011200044D00228C6F8608004D0FFF727FC0446AC
:1011300038E034E0FFF722FC074604E0FFF71EFC2E
:10114000C01B02282BD828688001F7D4206AB0F58C
:10115000803F05D16868A16820F4003008436860CA
:10116000D4E908010843696821F4741108436860F0
:10117000C6F86090FFF702FC044606E025E000BFD9
:10118000FFF7FCFB001B022809D828688001F7D56F
:101190001BE000BFFFF7F2FB001B022802D903206F
:1011A000BDE8F88F28688001F4D40EE00128F7D05C
:1011B0006868226A00F48031914204D1616A00F4C7
:1011C0007010884201D00120EAE70020E8E7000023
:1011D00000100240000042428004424218000020F9
:1011E000007000407047704710B5040003D094F8B9
:1011F0003D0010B107E0012010BD002084F83C0044
:10120000204600F00CF8022084F83D00211D2068E3
:1012100000F04EFA012084F83D00002010BD704718
:101220000168CA6842F00102CA600068816801F082
:101230000701062903D0016841F001010160002087
:101240007047704770B50446006801694FF00005AB
:10125000C943890715D4C168C943890711D4E91E58
:10126000016101202077206880698007204602D034
:10127000FFF7E7FF04E000F098F8204600F096F84A
:10128000257720680169C943490717D4C168C94354
:10129000490713D46FF00401016102202077206810
:1012A000806910F4407F204602D0FFF7CAFF04E0B7
:1012B00000F07BF8204600F079F825772068016976
:1012C000C943090716D4C168C943090712D46FF08E
:1012D00008010161042020772068C069800720464A
:1012E00002D0FFF7AEFF04E000F05FF8204600F008
:1012F0005DF8257720680169C943C90617D4C1681C
:10130000C943C90613D46FF010010161082020778A
:101310002068C06910F4407F204602D0FFF791FF9B
:1013200004E000F042F8204600F040F825772068FD
:101330000169C943C90708D1C168C943C90704D1B4
:10134000891E0161204600F033F820680169C94315
:10135000090609D4C168C943090605D46FF08001A4
:1013600001612046FFF73EFF20680169C943490635
:1013700009D4C168C943490605D46FF04001016131
:10138000204600F01FF820680169C94389060BD484
:10139000C168C943890607D46FF020010161204666
:1013A000BDE87040FFF71FBF70BD70477047000079
:1013B00000680349884201D1FFF7E6BA7047000090
:1013C000002C0140704770B5040004D094F8390037
:1013D000002510B106E0012070BD84F83850204689
:1013E00000F022F8242084F839002068C16821F434
:1013F0000051C160204600F091F92068016921F494
:10140000904101612068416921F02A014161206811
:10141000C16841F40051C160E563202084F83900BF
:1014200084F83A00002070BD30B585B000240094E7
:1014300001940294039400681449884224D114480A
:10144000816941F480418161816901F480410491A5
:10145000816941F00401816180690E4D00F0040052
:1014600004904FF40070009002200190032003903C
:1014700069462846FFF786F92815CDE90004694634
:1014800028460294FFF77EF905B030BD00380140D0
:101490000010024000080140FEE700003EB50024B5
:1014A0000D480094019402940A4984600160047319
:1014B0000475012505614FF460214460C161FEF7A8
:1014C00095FFCDE90045694603480294FEF70CFFFD
:1014D0003EBD0000002401407C0000202DE9F041C9
:1014E00086B00024204800940194029403948169FA
:1014F00041F010018161816901F01001049181695D
:1015000041F0040181618069184F00F004004FF43C
:1015100000550490002229463846FFF72AFADFF8E2
:101520005080002202214046FFF723FA0126CDE930
:101530000056022569463846CDE90245FFF722F9F3
:10154000CDE9005669464046CDE90245FFF71AF954
:10155000E801CDE90004694640460294FFF712F91C
:1015600006B0BDE8F081000000100240001001400C
:1015700000080140FEE770470E4E0F4C4FF4005537
:101580004FF4FA7729463046FFF7ECF90B48FFF79E
:101590007FF805210948FEF7E3FF18B90748FEF771
:1015A00021FF20600548FFF7D3F8384600F058FCCB
:1015B000E8E7000000100140000000207C0000204F
:1015C000054C4FF42F7502212046FFF7CBF9284632
:1015D00000F046FCF7E700000008014010B550207D
:1015E00080F31188BFF34F8FBFF36F8F00F048FD7A
:1015F00018B104494FF080500860002080F3118832
:1016000010BD000004ED00E030B593B0282168461D
:10161000FEF7EDFD14210AA8FEF7E9FD00240120E4
:101620000F940225049000951020119405901094B9
:10163000129407946846FFF745FC0F20CDE90A0491
:101640000C940D9400210AA80E94FFF72FFB0FA80D
:101650000F951194FFF7B4FA13B030BD0D4801682F
:1016600041F00101016041680B4A1140416001688D
:101670000A4A11400160016821F48021016041683B
:1016800021F4FE0141604FF41F0181600449C00351
:1016900008607047001002400000FFF8FFFFF6FEF0
:1016A00008ED00E00148FFF7CDBD0000EC00002090
:1016B000F0B50268164B174C174D4FF08047984213
:1016C00005D0B84203D0A04201D0A84203D122F0F5
:1016D00070064A683243984205D0B84203D0A0420F
:1016E00001D0A84203D122F44074CA6822434C6955
:1016F00022F08002224302608A68C2620A68826223
:10170000984201D10969016301214161F0BD0000E6
:10171000002C014000040040000800402DE9F04189
:10172000044600680169E26821F4405111430161F7
:101730002169A0680843616908432168CA6841F2C9
:101740000C639A430243CA6020684169A26921F48C
:101750004071114341611E49206864253226884248
:1017600002D1FFF769FB01E0FFF756FB00EBC00178
:1017700001EB001160686FF018078000B1FBF0F218
:10178000B2FBF5F2B1FBF0F37A4303EB8202B1FB5B
:10179000F0F306EB0212B2FBF5F2B3FBF5F302F045
:1017A000F00202EB0312B1FBF0F3B1FBF0F0B0FB7F
:1017B000F5F0784303EB800006EB0010B0FBF5F08A
:1017C000216800F00F0010448860BDE8F08100003F
:1017D00000380140FEE70907090E002804DB00F18C
:1017E000E02080F80014704700F00F0000F1E020C6
:1017F00080F8141D704702E008C8121F08C1002AB3
:10180000FAD170477047002001E001C1121F002A81
:10181000FBD170478AB0FFF7BFF8FFF7F5FEFFF77F
:101820005DFEFFF73BFE154813490C2201604FF4A3
:10183000E131416000218160C160C0E90412816131
:10184000C161FFF7C0FD14220D496846FEF7B6FCE2
:101850000021684600F023F80A4C09491422606010
:10186000143105A8FEF7AAFC002105A800F017F81E
:10187000A06000F00FF8FEE700380140AC00002047
:101880000C2200080000002001460020842900D01E
:10189000C81C704710B500F009FB002010BD3EB514
:1018A00004460D46B0F90800FFF7EEFF02A9CDE9A6
:1018B0000001208A2B4682B2D4E9001000F0B4FB6C
:1018C000012801D000203EBD02983EBD2DE9F04127
:1018D000184C0F46054666692068001D00F006FAA0
:1018E00038B9206890F82C1001208840A169814304
:1018F000A161681C07D137B12168BDE8F0410E48ED
:10190000091D00F02CBA20683544B54245602168B5
:1019100005D2A068BDE8F041091D00F008BA606872
:10192000091D00F004FA206B854200D22563BDE852
:10193000F08100001C000020080200202DE9F04189
:10194000054600F019FA2E4C2069401C20612068E1
:101950002C4F10B1E06940B32DE0256020690128CB
:1019600029D1002606EB860007EB800000F0D1F9B4
:10197000761C072EF6D323488C3000F0CAF9214894
:10198000A03000F0C6F91F48B43000F0C2F91D487D
:10199000C83000F0BEF91B48DC3000F0BAF9194835
:1019A0008C3060601430A06005E02068E96AC06A8D
:1019B000884200D82560E06A401CE062E96A0120A4
:1019C000A26988401043A06101EB810007EB800011
:1019D000291D00F0C4F900F0EFF9E06900280CD0EF
:1019E0002068E96AC06A884207D207494FF08050F0
:1019F0000860BFF34F8FBFF36F8FBDE8F081000029
:101A00001C0000202C01002004ED00E010B504466D
:101A1000006B00F0E5F92046BDE8104000F0E0B9A9
:101A200010484FF44061420706D0C01D0D4920F018
:101A30000700411AC1F540610B4A00230144C2E985
:101A400000030839103A21F0070111604B600B6068
:101A50000B1AC0E9001393604FF000405360D06050
:101A6000704700001C02002068000020144E154C36
:101A7000A6F1C8074FF08058DFF84C9012E000BF85
:101A800000F07AF9F068C568281D00F02FF9206988
:101A9000401E2061E068401EE06000F08DF928469D
:101AA000FFF7B4FFE0680028EAD138680128F9D9C7
:101AB000C9F80080BFF34F8FBFF36F8FF2E70000CC
:101AC000F40100201C00002004ED00E02DE9F047A7
:101AD0009A46DDE9098481466FF00303206B03EB2E
:101AE00082021044089D20F00706700707D050209E
:101AF00080F31188BFF34F8FBFF36F8FFEE723187A
:101B00000A5C83F834200A5C12B1401C1028F6D31A
:101B1000002784F84370072D00D30625E562C4E949
:101B20001157201D00F000F904F1180000F0FCF836
:101B30002461C5F107006462A061E76484F8507015
:101B400052464946304600F0BFF82060B8F1000F19
:101B500001D0C8F80040BDE8F087000030B5114959
:101B600000E011460A688242FBD34B685C1884424D
:101B700003D1406818444860084643681C189442E2
:101B800009D1084C103C2468A24209D052681A447A
:101B900042600A6812680260814200D0086030BD6D
:101BA0000460F9E76800002006484168096829B127
:101BB0004168C968C9684968016370474FF0FF31DF
:101BC000FAE700001C00002008484068401C4FF065
:101BD000500080F3118804D0BFF34F8FBFF36F8F95
:101BE000FEE7BFF34F8FBFF36F8FFEE7700000205B
:101BF0002DE9F0410546002700F08CF9314E3068A0
:101C000008B9FFF70DFFF06805424BD1C5B30835A1
:101C100068070ED005F00700C0F10800054468070A
:101C200007D0502080F31188BFF34F8FBFF36F8F21
:101C3000FEE72DB37068854234D822481030014643
:101C40000C6801E020460C466168A94202D2216876
:101C50000029F7D131688C4224D0076821680160DF
:101C600060680837411B10290FD96019420708D056
:101C7000502080F31188BFF34F8FBFF36F8FFEE7C3
:101C800010E041606560FFF769FF61687068401AA5
:101C90007060B268904200D2B060F06801430020EA
:101CA000C4E9000100F050FA780707D0502080F313
:101CB0001188BFF34F8FBFF36F8FFEE73846BDE843
:101CC000F08100005800002010B5031F4FF0807411
:101CD0001C601B1F21F001011960191F024B0B60D2
:101CE000143940380A6010BDC91B0008D0E9013220
:101CF00001699A60D0E901235A604A68824201D1A1
:101D000082684A60002202610868401E0860086814
:101D1000704700F108014FF0FF32C0E90112C160C5
:101D2000016100210160704700210161704730B5F9
:101D30000B685A1C02D000F1080202E0026904E0BC
:101D40002246546825689D42FAD953684B609960D1
:101D50008A60516008610168491C016030BD4268B9
:101D60004A6093688B60936859609160086101686C
:101D7000491C016070470000502080F31188BFF3B8
:101D80004F8FBFF36F8F0A494868401C4860012895
:101D90000CD10848006810F0FF0F07D0502080F3E6
:101DA0001188BFF34F8FBFF36F8FFEE770470000BE
:101DB0007000002004ED00E00849486828B1401E8A
:101DC000486001D180F311887047502080F311885A
:101DD000BFF34F8FBFF36F8FFEE70000700000204E
:101DE00070B5002827D0144DA0F108046168E86898
:101DF000014207D1502080F31188BFF34F8FBFF30A
:101E00006F8FFEE722683AB1502080F31188BFF34C
:101E10004F8FBFF36F8FFEE78143616000F07AF868
:101E200060686968084468602046FFF797FEBDE86F
:101E3000704000F089B970BD580000204FF0E020DC
:101E400000210161816105494FF47A720968B1FB93
:101E5000F2F1491E4161072101617047180000201D
:101E600010B5020014D00F48806B38B1502080F3B9
:101E70001188BFF34F8FBFF36F8FFEE700F04AF872
:101E800000211046FFF722FD00F05EF9002807D17F
:101E900005494FF080500860BFF34F8FBFF36F8F3D
:101EA00010BD00001C00002004ED00E01CB515482A
:101EB0000024CDE900402346802213A1144800F0FD
:101EC000B3F8012809D0401C1AD1502080F31188A2
:101ED000BFF34F8FBFF36F8FFEE7502080F3118861
:101EE000BFF34F8FBFF36F8F06484FF0FF31343889
:101EF00001630121C1614461BDE81C4000F040B8AC
:101F00001CBD00005000002049444C45000000006A
:101F10006D1A00080248816B491C816370470000FC
:101F20001C0000201448816B11B1012141627047EF
:101F3000002141628169B1FA81F1C1F11F0101EB18
:101F400081020E4951F822306BB101EB820101F19F
:101F500008034A6852684A609A4201D152684A604E
:101F6000D16801607047502080F31188BFF34F8F14
:101F7000BFF36F8FFEE700001C0000202C01002043
:101F80001CB5264908780190FF20087008788DF864
:101F900000009DF800009DF8002000F0F000904245
:101FA00007D0502080F31188BFF34F8FBFF36F8F9E
:101FB000FEE79DF800001A4B00F050001870072053
:101FC000986005E09DF8002052008DF80020401E2A
:101FD0009DF800201206F5D49860032807D0502001
:101FE00080F31188BFF34F8FBFF36F8FFEE74FF47D
:101FF00040709860019808700A48016841F47001C7
:102000000160016841F070410160FFF717FF002097
:102010005860FEF787F800201CBD000000E400E0D7
:102020007000002020ED00E02DE9FF5F8346DDE930
:102030000E87994616468A469000FFF7D9FD05009F
:102040001AD05420FFF7D4FD040012D025630021DC
:10205000CDE90241CDE900874B463246514658460C
:10206000FFF734FD2046FFF769FC012004B0BDE80E
:10207000F09F2846FFF7B4FE4FF0FF30F6E7000070
:102080002DE9F0412E4C0027A06B40B1206A401C86
:102090002062606A00B101273846BDE8F0816669B8
:1020A000761C666113D16068006838B1502080F3F7
:1020B0001188BFF34F8FBFF36F8FFEE76068A16891
:1020C0006160A060A06A401CA062FFF76DFD206BFC
:1020D000DFF87080864209D36068006880B160686C
:1020E000C068C568686886420DD220632068C06AEF
:1020F00000EB800158F821000128CAD90127C8E760
:102100004FF0FF30F1E7281DFFF7F0FDA86A18B186
:1021100005F11800FFF7EAFDE86A0121A269814094
:102120001143A16100EB800108EB8100291DFFF73D
:1021300016FEE86A2168C96A8842CDD30127CBE739
:102140001C0000202C0100202DE9F0472C4D00241C
:102150002746A86B38B1FFF70FFEA86B401EA86397
:10216000A86B40B146E0502080F31188BFF34F8F39
:10217000BFF36F8FFEE72969224E0120D1B3A6F18C
:10218000B40980463068E8B1F068C46804F118000A
:10219000FFF7ACFD201DFFF7A9FDE06AAA6908FA68
:1021A00000F11143A96100EB800109EB8100211DC1
:1021B000FFF7D5FDE06A2968C96A8842E2D3C5F80D
:1021C0002480DFE70CB1FFF7EFFC2C6A44B14646F0
:1021D000FFF756FF00B16E62641EF9D1002028623D
:1021E000686A38B10849012738070860BFF34F8F84
:1021F000BFF36F8FFFF7E0FD3846BDE8F0870000C2
:102200001C000020E001002004ED00E0582200083E
:1022100079150008000000000000000080000000A8
:102220004C220008C1150008FEFF0000000000005D
:102230008000000000000000000000000102030414
:102240000607080900000000010203046D795461CB
:10225000736B30320000000064656661756C745405
:1022600061736B0084220008000000207C000000E5
:10227000F6170008002300087C000020A4110000CD
:102280000618000800000000000000000000000028
:102290000100000010000000000000000024F40015
:1022A000000000000000000000000000000000002E
:1022B000000000000000000000000000000000001E
:1022C000000000000000000000000000000000000E
:1022D00000000000000000000000000000000000FE
:1022E00000000000000000000000000000000000EE
:1022F0000000000000000000AAAAAAAA0000000036
:04000005080000ED02
:00000001FF
